{
	"data": {
		"bytecode": {
			"linkReferences": {},
			"object": "60806040525f600155348015610013575f80fd5b506116da806100215f395ff3fe608060405260043610610054575f3560e01c8063075843c31461005857806307ca140d146100945780630fa91fa9146100be578063141961bc146100fb57806342a4fda81461013c578063a6b0363314610158575b5f80fd5b348015610063575f80fd5b5061007e60048036038101906100799190610bad565b610182565b60405161008b9190610c6b565b60405180910390f35b34801561009f575f80fd5b506100a861028f565b6040516100b59190610c6b565b60405180910390f35b3480156100c9575f80fd5b506100e460048036038101906100df9190610c84565b610295565b6040516100f2929190610e1d565b60405180910390f35b348015610106575f80fd5b50610121600480360381019061011c9190610c84565b61039c565b60405161013396959493929190610edb565b60405180910390f35b61015660048036038101906101519190610c84565b6104fe565b005b348015610163575f80fd5b5061016c61064e565b60405161017991906111e5565b60405180910390f35b5f805f8060015481526020019081526020015f209050428160040154106101de576040517f08c379a00000000000000000000000000000000000000000000000000000000081526004016101d590611275565b60405180910390fd5b86815f015f6101000a81548173ffffffffffffffffffffffffffffffffffffffff021916908373ffffffffffffffffffffffffffffffffffffffff16021790555085816001019081610230919061148d565b5084816002019081610242919061148d565b508381600301819055508281600401819055505f816005018190555060015f81548092919061027090611589565b91905055506001805461028391906115d0565b91505095945050505050565b60015481565b6060805f808481526020019081526020015f206006015f808581526020019081526020015f206007018180548060200260200160405190810160405280929190818152602001828054801561033c57602002820191905f5260205f20905b815f9054906101000a900473ffffffffffffffffffffffffffffffffffffffff1673ffffffffffffffffffffffffffffffffffffffff16815260200190600101908083116102f3575b505050505091508080548060200260200160405190810160405280929190818152602001828054801561038c57602002820191905f5260205f20905b815481526020019060010190808311610378575b5050505050905091509150915091565b5f602052805f5260405f205f91509050805f015f9054906101000a900473ffffffffffffffffffffffffffffffffffffffff16908060010180546103df906112c0565b80601f016020809104026020016040519081016040528092919081815260200182805461040b906112c0565b80156104565780601f1061042d57610100808354040283529160200191610456565b820191905f5260205f20905b81548152906001019060200180831161043957829003601f168201915b50505050509080600201805461046b906112c0565b80601f0160208091040260200160405190810160405280929190818152602001828054610497906112c0565b80156104e25780601f106104b9576101008083540402835291602001916104e2565b820191905f5260205f20905b8154815290600101906020018083116104c557829003601f168201915b5050505050908060030154908060040154908060050154905086565b5f3490505f805f8481526020019081526020015f2090508060060133908060018154018082558091505060019003905f5260205f20015f9091909190916101000a81548173ffffffffffffffffffffffffffffffffffffffff021916908373ffffffffffffffffffffffffffffffffffffffff1602179055508060070182908060018154018082558091505060019003905f5260205f20015f90919091909150555f815f015f9054906101000a900473ffffffffffffffffffffffffffffffffffffffff1673ffffffffffffffffffffffffffffffffffffffff16836040516105e690611630565b5f6040518083038185875af1925050503d805f8114610620576040519150601f19603f3d011682016040523d82523d5f602084013e610625565b606091505b5050905080156106485782826005015461063f9190611644565b82600501819055505b50505050565b60605f60015467ffffffffffffffff81111561066d5761066c610a56565b5b6040519080825280602002602001820160405280156106a657816020015b61069361097c565b81526020019060019003908161068b5790505b5090505f5b600154811015610974575f805f8381526020019081526020015f20905080604051806101000160405290815f82015f9054906101000a900473ffffffffffffffffffffffffffffffffffffffff1673ffffffffffffffffffffffffffffffffffffffff1673ffffffffffffffffffffffffffffffffffffffff168152602001600182018054610739906112c0565b80601f0160208091040260200160405190810160405280929190818152602001828054610765906112c0565b80156107b05780601f10610787576101008083540402835291602001916107b0565b820191905f5260205f20905b81548152906001019060200180831161079357829003601f168201915b505050505081526020016002820180546107c9906112c0565b80601f01602080910402602001604051908101604052809291908181526020018280546107f5906112c0565b80156108405780601f1061081757610100808354040283529160200191610840565b820191905f5260205f20905b81548152906001019060200180831161082357829003601f168201915b50505050508152602001600382015481526020016004820154815260200160058201548152602001600682018054806020026020016040519081016040528092919081815260200182805480156108e957602002820191905f5260205f20905b815f9054906101000a900473ffffffffffffffffffffffffffffffffffffffff1673ffffffffffffffffffffffffffffffffffffffff16815260200190600101908083116108a0575b505050505081526020016007820180548060200260200160405190810160405280929190818152602001828054801561093f57602002820191905f5260205f20905b81548152602001906001019080831161092b575b50505050508152505083838151811061095b5761095a611677565b5b60200260200101819052505080806001019150506106ab565b508091505090565b6040518061010001604052805f73ffffffffffffffffffffffffffffffffffffffff16815260200160608152602001606081526020015f81526020015f81526020015f815260200160608152602001606081525090565b5f604051905090565b5f80fd5b5f80fd5b5f73ffffffffffffffffffffffffffffffffffffffff82169050919050565b5f610a0d826109e4565b9050919050565b610a1d81610a03565b8114610a27575f80fd5b50565b5f81359050610a3881610a14565b92915050565b5f80fd5b5f80fd5b5f601f19601f8301169050919050565b7f4e487b71000000000000000000000000000000000000000000000000000000005f52604160045260245ffd5b610a8c82610a46565b810181811067ffffffffffffffff82111715610aab57610aaa610a56565b5b80604052505050565b5f610abd6109d3565b9050610ac98282610a83565b919050565b5f67ffffffffffffffff821115610ae857610ae7610a56565b5b610af182610a46565b9050602081019050919050565b828183375f83830152505050565b5f610b1e610b1984610ace565b610ab4565b905082815260208101848484011115610b3a57610b39610a42565b5b610b45848285610afe565b509392505050565b5f82601f830112610b6157610b60610a3e565b5b8135610b71848260208601610b0c565b91505092915050565b5f819050919050565b610b8c81610b7a565b8114610b96575f80fd5b50565b5f81359050610ba781610b83565b92915050565b5f805f805f60a08688031215610bc657610bc56109dc565b5b5f610bd388828901610a2a565b955050602086013567ffffffffffffffff811115610bf457610bf36109e0565b5b610c0088828901610b4d565b945050604086013567ffffffffffffffff811115610c2157610c206109e0565b5b610c2d88828901610b4d565b9350506060610c3e88828901610b99565b9250506080610c4f88828901610b99565b9150509295509295909350565b610c6581610b7a565b82525050565b5f602082019050610c7e5f830184610c5c565b92915050565b5f60208284031215610c9957610c986109dc565b5b5f610ca684828501610b99565b91505092915050565b5f81519050919050565b5f82825260208201905092915050565b5f819050602082019050919050565b610ce181610a03565b82525050565b5f610cf28383610cd8565b60208301905092915050565b5f602082019050919050565b5f610d1482610caf565b610d1e8185610cb9565b9350610d2983610cc9565b805f5b83811015610d59578151610d408882610ce7565b9750610d4b83610cfe565b925050600181019050610d2c565b5085935050505092915050565b5f81519050919050565b5f82825260208201905092915050565b5f819050602082019050919050565b610d9881610b7a565b82525050565b5f610da98383610d8f565b60208301905092915050565b5f602082019050919050565b5f610dcb82610d66565b610dd58185610d70565b9350610de083610d80565b805f5b83811015610e10578151610df78882610d9e565b9750610e0283610db5565b925050600181019050610de3565b5085935050505092915050565b5f6040820190508181035f830152610e358185610d0a565b90508181036020830152610e498184610dc1565b90509392505050565b610e5b81610a03565b82525050565b5f81519050919050565b5f82825260208201905092915050565b5f5b83811015610e98578082015181840152602081019050610e7d565b5f8484015250505050565b5f610ead82610e61565b610eb78185610e6b565b9350610ec7818560208601610e7b565b610ed081610a46565b840191505092915050565b5f60c082019050610eee5f830189610e52565b8181036020830152610f008188610ea3565b90508181036040830152610f148187610ea3565b9050610f236060830186610c5c565b610f306080830185610c5c565b610f3d60a0830184610c5c565b979650505050505050565b5f81519050919050565b5f82825260208201905092915050565b5f819050602082019050919050565b5f82825260208201905092915050565b5f610f8b82610e61565b610f958185610f71565b9350610fa5818560208601610e7b565b610fae81610a46565b840191505092915050565b5f82825260208201905092915050565b5f610fd382610caf565b610fdd8185610fb9565b9350610fe883610cc9565b805f5b83811015611018578151610fff8882610ce7565b975061100a83610cfe565b925050600181019050610feb565b5085935050505092915050565b5f82825260208201905092915050565b5f61103f82610d66565b6110498185611025565b935061105483610d80565b805f5b8381101561108457815161106b8882610d9e565b975061107683610db5565b925050600181019050611057565b5085935050505092915050565b5f61010083015f8301516110a75f860182610cd8565b50602083015184820360208601526110bf8282610f81565b915050604083015184820360408601526110d98282610f81565b91505060608301516110ee6060860182610d8f565b5060808301516111016080860182610d8f565b5060a083015161111460a0860182610d8f565b5060c083015184820360c086015261112c8282610fc9565b91505060e083015184820360e08601526111468282611035565b9150508091505092915050565b5f61115e8383611091565b905092915050565b5f602082019050919050565b5f61117c82610f48565b6111868185610f52565b93508360208202850161119885610f62565b805f5b858110156111d357848403895281516111b48582611153565b94506111bf83611166565b925060208a0199505060018101905061119b565b50829750879550505050505092915050565b5f6020820190508181035f8301526111fd8184611172565b905092915050565b7f54686520646561646c696e652073686f756c642062652061206461746520696e5f8201527f20746865206675747572652e0000000000000000000000000000000000000000602082015250565b5f61125f602c83610e6b565b915061126a82611205565b604082019050919050565b5f6020820190508181035f83015261128c81611253565b9050919050565b7f4e487b71000000000000000000000000000000000000000000000000000000005f52602260045260245ffd5b5f60028204905060018216806112d757607f821691505b6020821081036112ea576112e9611293565b5b50919050565b5f819050815f5260205f209050919050565b5f6020601f8301049050919050565b5f82821b905092915050565b5f6008830261134c7fffffffffffffffffffffffffffffffffffffffffffffffffffffffffffffffff82611311565b6113568683611311565b95508019841693508086168417925050509392505050565b5f819050919050565b5f61139161138c61138784610b7a565b61136e565b610b7a565b9050919050565b5f819050919050565b6113aa83611377565b6113be6113b682611398565b84845461131d565b825550505050565b5f90565b6113d26113c6565b6113dd8184846113a1565b505050565b5b81811015611400576113f55f826113ca565b6001810190506113e3565b5050565b601f82111561144557611416816112f0565b61141f84611302565b8101602085101561142e578190505b61144261143a85611302565b8301826113e2565b50505b505050565b5f82821c905092915050565b5f6114655f198460080261144a565b1980831691505092915050565b5f61147d8383611456565b9150826002028217905092915050565b61149682610e61565b67ffffffffffffffff8111156114af576114ae610a56565b5b6114b982546112c0565b6114c4828285611404565b5f60209050601f8311600181146114f5575f84156114e3578287015190505b6114ed8582611472565b865550611554565b601f198416611503866112f0565b5f5b8281101561152a57848901518255600182019150602085019450602081019050611505565b868310156115475784890151611543601f891682611456565b8355505b6001600288020188555050505b505050505050565b7f4e487b71000000000000000000000000000000000000000000000000000000005f52601160045260245ffd5b5f61159382610b7a565b91507fffffffffffffffffffffffffffffffffffffffffffffffffffffffffffffffff82036115c5576115c461155c565b5b600182019050919050565b5f6115da82610b7a565b91506115e583610b7a565b92508282039050818111156115fd576115fc61155c565b5b92915050565b5f81905092915050565b50565b5f61161b5f83611603565b91506116268261160d565b5f82019050919050565b5f61163a82611610565b9150819050919050565b5f61164e82610b7a565b915061165983610b7a565b92508282019050808211156116715761167061155c565b5b92915050565b7f4e487b71000000000000000000000000000000000000000000000000000000005f52603260045260245ffdfea264697066735822122015ebbbcbc715164593db787ada165582d24ba1a4041dd4a0e31fac61a74c161264736f6c63430008180033",
			"opcodes": "PUSH1 0x80 PUSH1 0x40 MSTORE PUSH0 PUSH1 0x1 SSTORE CALLVALUE DUP1 ISZERO PUSH2 0x13 JUMPI PUSH0 DUP1 REVERT JUMPDEST POP PUSH2 0x16DA DUP1 PUSH2 0x21 PUSH0 CODECOPY PUSH0 RETURN INVALID PUSH1 0x80 PUSH1 0x40 MSTORE PUSH1 0x4 CALLDATASIZE LT PUSH2 0x54 JUMPI PUSH0 CALLDATALOAD PUSH1 0xE0 SHR DUP1 PUSH4 0x75843C3 EQ PUSH2 0x58 JUMPI DUP1 PUSH4 0x7CA140D EQ PUSH2 0x94 JUMPI DUP1 PUSH4 0xFA91FA9 EQ PUSH2 0xBE JUMPI DUP1 PUSH4 0x141961BC EQ PUSH2 0xFB JUMPI DUP1 PUSH4 0x42A4FDA8 EQ PUSH2 0x13C JUMPI DUP1 PUSH4 0xA6B03633 EQ PUSH2 0x158 JUMPI JUMPDEST PUSH0 DUP1 REVERT JUMPDEST CALLVALUE DUP1 ISZERO PUSH2 0x63 JUMPI PUSH0 DUP1 REVERT JUMPDEST POP PUSH2 0x7E PUSH1 0x4 DUP1 CALLDATASIZE SUB DUP2 ADD SWAP1 PUSH2 0x79 SWAP2 SWAP1 PUSH2 0xBAD JUMP JUMPDEST PUSH2 0x182 JUMP JUMPDEST PUSH1 0x40 MLOAD PUSH2 0x8B SWAP2 SWAP1 PUSH2 0xC6B JUMP JUMPDEST PUSH1 0x40 MLOAD DUP1 SWAP2 SUB SWAP1 RETURN JUMPDEST CALLVALUE DUP1 ISZERO PUSH2 0x9F JUMPI PUSH0 DUP1 REVERT JUMPDEST POP PUSH2 0xA8 PUSH2 0x28F JUMP JUMPDEST PUSH1 0x40 MLOAD PUSH2 0xB5 SWAP2 SWAP1 PUSH2 0xC6B JUMP JUMPDEST PUSH1 0x40 MLOAD DUP1 SWAP2 SUB SWAP1 RETURN JUMPDEST CALLVALUE DUP1 ISZERO PUSH2 0xC9 JUMPI PUSH0 DUP1 REVERT JUMPDEST POP PUSH2 0xE4 PUSH1 0x4 DUP1 CALLDATASIZE SUB DUP2 ADD SWAP1 PUSH2 0xDF SWAP2 SWAP1 PUSH2 0xC84 JUMP JUMPDEST PUSH2 0x295 JUMP JUMPDEST PUSH1 0x40 MLOAD PUSH2 0xF2 SWAP3 SWAP2 SWAP1 PUSH2 0xE1D JUMP JUMPDEST PUSH1 0x40 MLOAD DUP1 SWAP2 SUB SWAP1 RETURN JUMPDEST CALLVALUE DUP1 ISZERO PUSH2 0x106 JUMPI PUSH0 DUP1 REVERT JUMPDEST POP PUSH2 0x121 PUSH1 0x4 DUP1 CALLDATASIZE SUB DUP2 ADD SWAP1 PUSH2 0x11C SWAP2 SWAP1 PUSH2 0xC84 JUMP JUMPDEST PUSH2 0x39C JUMP JUMPDEST PUSH1 0x40 MLOAD PUSH2 0x133 SWAP7 SWAP6 SWAP5 SWAP4 SWAP3 SWAP2 SWAP1 PUSH2 0xEDB JUMP JUMPDEST PUSH1 0x40 MLOAD DUP1 SWAP2 SUB SWAP1 RETURN JUMPDEST PUSH2 0x156 PUSH1 0x4 DUP1 CALLDATASIZE SUB DUP2 ADD SWAP1 PUSH2 0x151 SWAP2 SWAP1 PUSH2 0xC84 JUMP JUMPDEST PUSH2 0x4FE JUMP JUMPDEST STOP JUMPDEST CALLVALUE DUP1 ISZERO PUSH2 0x163 JUMPI PUSH0 DUP1 REVERT JUMPDEST POP PUSH2 0x16C PUSH2 0x64E JUMP JUMPDEST PUSH1 0x40 MLOAD PUSH2 0x179 SWAP2 SWAP1 PUSH2 0x11E5 JUMP JUMPDEST PUSH1 0x40 MLOAD DUP1 SWAP2 SUB SWAP1 RETURN JUMPDEST PUSH0 DUP1 PUSH0 DUP1 PUSH1 0x1 SLOAD DUP2 MSTORE PUSH1 0x20 ADD SWAP1 DUP2 MSTORE PUSH1 0x20 ADD PUSH0 KECCAK256 SWAP1 POP TIMESTAMP DUP2 PUSH1 0x4 ADD SLOAD LT PUSH2 0x1DE JUMPI PUSH1 0x40 MLOAD PUSH32 0x8C379A000000000000000000000000000000000000000000000000000000000 DUP2 MSTORE PUSH1 0x4 ADD PUSH2 0x1D5 SWAP1 PUSH2 0x1275 JUMP JUMPDEST PUSH1 0x40 MLOAD DUP1 SWAP2 SUB SWAP1 REVERT JUMPDEST DUP7 DUP2 PUSH0 ADD PUSH0 PUSH2 0x100 EXP DUP2 SLOAD DUP2 PUSH20 0xFFFFFFFFFFFFFFFFFFFFFFFFFFFFFFFFFFFFFFFF MUL NOT AND SWAP1 DUP4 PUSH20 0xFFFFFFFFFFFFFFFFFFFFFFFFFFFFFFFFFFFFFFFF AND MUL OR SWAP1 SSTORE POP DUP6 DUP2 PUSH1 0x1 ADD SWAP1 DUP2 PUSH2 0x230 SWAP2 SWAP1 PUSH2 0x148D JUMP JUMPDEST POP DUP5 DUP2 PUSH1 0x2 ADD SWAP1 DUP2 PUSH2 0x242 SWAP2 SWAP1 PUSH2 0x148D JUMP JUMPDEST POP DUP4 DUP2 PUSH1 0x3 ADD DUP2 SWAP1 SSTORE POP DUP3 DUP2 PUSH1 0x4 ADD DUP2 SWAP1 SSTORE POP PUSH0 DUP2 PUSH1 0x5 ADD DUP2 SWAP1 SSTORE POP PUSH1 0x1 PUSH0 DUP2 SLOAD DUP1 SWAP3 SWAP2 SWAP1 PUSH2 0x270 SWAP1 PUSH2 0x1589 JUMP JUMPDEST SWAP2 SWAP1 POP SSTORE POP PUSH1 0x1 DUP1 SLOAD PUSH2 0x283 SWAP2 SWAP1 PUSH2 0x15D0 JUMP JUMPDEST SWAP2 POP POP SWAP6 SWAP5 POP POP POP POP POP JUMP JUMPDEST PUSH1 0x1 SLOAD DUP2 JUMP JUMPDEST PUSH1 0x60 DUP1 PUSH0 DUP1 DUP5 DUP2 MSTORE PUSH1 0x20 ADD SWAP1 DUP2 MSTORE PUSH1 0x20 ADD PUSH0 KECCAK256 PUSH1 0x6 ADD PUSH0 DUP1 DUP6 DUP2 MSTORE PUSH1 0x20 ADD SWAP1 DUP2 MSTORE PUSH1 0x20 ADD PUSH0 KECCAK256 PUSH1 0x7 ADD DUP2 DUP1 SLOAD DUP1 PUSH1 0x20 MUL PUSH1 0x20 ADD PUSH1 0x40 MLOAD SWAP1 DUP2 ADD PUSH1 0x40 MSTORE DUP1 SWAP3 SWAP2 SWAP1 DUP2 DUP2 MSTORE PUSH1 0x20 ADD DUP3 DUP1 SLOAD DUP1 ISZERO PUSH2 0x33C JUMPI PUSH1 0x20 MUL DUP3 ADD SWAP2 SWAP1 PUSH0 MSTORE PUSH1 0x20 PUSH0 KECCAK256 SWAP1 JUMPDEST DUP2 PUSH0 SWAP1 SLOAD SWAP1 PUSH2 0x100 EXP SWAP1 DIV PUSH20 0xFFFFFFFFFFFFFFFFFFFFFFFFFFFFFFFFFFFFFFFF AND PUSH20 0xFFFFFFFFFFFFFFFFFFFFFFFFFFFFFFFFFFFFFFFF AND DUP2 MSTORE PUSH1 0x20 ADD SWAP1 PUSH1 0x1 ADD SWAP1 DUP1 DUP4 GT PUSH2 0x2F3 JUMPI JUMPDEST POP POP POP POP POP SWAP2 POP DUP1 DUP1 SLOAD DUP1 PUSH1 0x20 MUL PUSH1 0x20 ADD PUSH1 0x40 MLOAD SWAP1 DUP2 ADD PUSH1 0x40 MSTORE DUP1 SWAP3 SWAP2 SWAP1 DUP2 DUP2 MSTORE PUSH1 0x20 ADD DUP3 DUP1 SLOAD DUP1 ISZERO PUSH2 0x38C JUMPI PUSH1 0x20 MUL DUP3 ADD SWAP2 SWAP1 PUSH0 MSTORE PUSH1 0x20 PUSH0 KECCAK256 SWAP1 JUMPDEST DUP2 SLOAD DUP2 MSTORE PUSH1 0x20 ADD SWAP1 PUSH1 0x1 ADD SWAP1 DUP1 DUP4 GT PUSH2 0x378 JUMPI JUMPDEST POP POP POP POP POP SWAP1 POP SWAP2 POP SWAP2 POP SWAP2 POP SWAP2 JUMP JUMPDEST PUSH0 PUSH1 0x20 MSTORE DUP1 PUSH0 MSTORE PUSH1 0x40 PUSH0 KECCAK256 PUSH0 SWAP2 POP SWAP1 POP DUP1 PUSH0 ADD PUSH0 SWAP1 SLOAD SWAP1 PUSH2 0x100 EXP SWAP1 DIV PUSH20 0xFFFFFFFFFFFFFFFFFFFFFFFFFFFFFFFFFFFFFFFF AND SWAP1 DUP1 PUSH1 0x1 ADD DUP1 SLOAD PUSH2 0x3DF SWAP1 PUSH2 0x12C0 JUMP JUMPDEST DUP1 PUSH1 0x1F ADD PUSH1 0x20 DUP1 SWAP2 DIV MUL PUSH1 0x20 ADD PUSH1 0x40 MLOAD SWAP1 DUP2 ADD PUSH1 0x40 MSTORE DUP1 SWAP3 SWAP2 SWAP1 DUP2 DUP2 MSTORE PUSH1 0x20 ADD DUP3 DUP1 SLOAD PUSH2 0x40B SWAP1 PUSH2 0x12C0 JUMP JUMPDEST DUP1 ISZERO PUSH2 0x456 JUMPI DUP1 PUSH1 0x1F LT PUSH2 0x42D JUMPI PUSH2 0x100 DUP1 DUP4 SLOAD DIV MUL DUP4 MSTORE SWAP2 PUSH1 0x20 ADD SWAP2 PUSH2 0x456 JUMP JUMPDEST DUP3 ADD SWAP2 SWAP1 PUSH0 MSTORE PUSH1 0x20 PUSH0 KECCAK256 SWAP1 JUMPDEST DUP2 SLOAD DUP2 MSTORE SWAP1 PUSH1 0x1 ADD SWAP1 PUSH1 0x20 ADD DUP1 DUP4 GT PUSH2 0x439 JUMPI DUP3 SWAP1 SUB PUSH1 0x1F AND DUP3 ADD SWAP2 JUMPDEST POP POP POP POP POP SWAP1 DUP1 PUSH1 0x2 ADD DUP1 SLOAD PUSH2 0x46B SWAP1 PUSH2 0x12C0 JUMP JUMPDEST DUP1 PUSH1 0x1F ADD PUSH1 0x20 DUP1 SWAP2 DIV MUL PUSH1 0x20 ADD PUSH1 0x40 MLOAD SWAP1 DUP2 ADD PUSH1 0x40 MSTORE DUP1 SWAP3 SWAP2 SWAP1 DUP2 DUP2 MSTORE PUSH1 0x20 ADD DUP3 DUP1 SLOAD PUSH2 0x497 SWAP1 PUSH2 0x12C0 JUMP JUMPDEST DUP1 ISZERO PUSH2 0x4E2 JUMPI DUP1 PUSH1 0x1F LT PUSH2 0x4B9 JUMPI PUSH2 0x100 DUP1 DUP4 SLOAD DIV MUL DUP4 MSTORE SWAP2 PUSH1 0x20 ADD SWAP2 PUSH2 0x4E2 JUMP JUMPDEST DUP3 ADD SWAP2 SWAP1 PUSH0 MSTORE PUSH1 0x20 PUSH0 KECCAK256 SWAP1 JUMPDEST DUP2 SLOAD DUP2 MSTORE SWAP1 PUSH1 0x1 ADD SWAP1 PUSH1 0x20 ADD DUP1 DUP4 GT PUSH2 0x4C5 JUMPI DUP3 SWAP1 SUB PUSH1 0x1F AND DUP3 ADD SWAP2 JUMPDEST POP POP POP POP POP SWAP1 DUP1 PUSH1 0x3 ADD SLOAD SWAP1 DUP1 PUSH1 0x4 ADD SLOAD SWAP1 DUP1 PUSH1 0x5 ADD SLOAD SWAP1 POP DUP7 JUMP JUMPDEST PUSH0 CALLVALUE SWAP1 POP PUSH0 DUP1 PUSH0 DUP5 DUP2 MSTORE PUSH1 0x20 ADD SWAP1 DUP2 MSTORE PUSH1 0x20 ADD PUSH0 KECCAK256 SWAP1 POP DUP1 PUSH1 0x6 ADD CALLER SWAP1 DUP1 PUSH1 0x1 DUP2 SLOAD ADD DUP1 DUP3 SSTORE DUP1 SWAP2 POP POP PUSH1 0x1 SWAP1 SUB SWAP1 PUSH0 MSTORE PUSH1 0x20 PUSH0 KECCAK256 ADD PUSH0 SWAP1 SWAP2 SWAP1 SWAP2 SWAP1 SWAP2 PUSH2 0x100 EXP DUP2 SLOAD DUP2 PUSH20 0xFFFFFFFFFFFFFFFFFFFFFFFFFFFFFFFFFFFFFFFF MUL NOT AND SWAP1 DUP4 PUSH20 0xFFFFFFFFFFFFFFFFFFFFFFFFFFFFFFFFFFFFFFFF AND MUL OR SWAP1 SSTORE POP DUP1 PUSH1 0x7 ADD DUP3 SWAP1 DUP1 PUSH1 0x1 DUP2 SLOAD ADD DUP1 DUP3 SSTORE DUP1 SWAP2 POP POP PUSH1 0x1 SWAP1 SUB SWAP1 PUSH0 MSTORE PUSH1 0x20 PUSH0 KECCAK256 ADD PUSH0 SWAP1 SWAP2 SWAP1 SWAP2 SWAP1 SWAP2 POP SSTORE PUSH0 DUP2 PUSH0 ADD PUSH0 SWAP1 SLOAD SWAP1 PUSH2 0x100 EXP SWAP1 DIV PUSH20 0xFFFFFFFFFFFFFFFFFFFFFFFFFFFFFFFFFFFFFFFF AND PUSH20 0xFFFFFFFFFFFFFFFFFFFFFFFFFFFFFFFFFFFFFFFF AND DUP4 PUSH1 0x40 MLOAD PUSH2 0x5E6 SWAP1 PUSH2 0x1630 JUMP JUMPDEST PUSH0 PUSH1 0x40 MLOAD DUP1 DUP4 SUB DUP2 DUP6 DUP8 GAS CALL SWAP3 POP POP POP RETURNDATASIZE DUP1 PUSH0 DUP2 EQ PUSH2 0x620 JUMPI PUSH1 0x40 MLOAD SWAP2 POP PUSH1 0x1F NOT PUSH1 0x3F RETURNDATASIZE ADD AND DUP3 ADD PUSH1 0x40 MSTORE RETURNDATASIZE DUP3 MSTORE RETURNDATASIZE PUSH0 PUSH1 0x20 DUP5 ADD RETURNDATACOPY PUSH2 0x625 JUMP JUMPDEST PUSH1 0x60 SWAP2 POP JUMPDEST POP POP SWAP1 POP DUP1 ISZERO PUSH2 0x648 JUMPI DUP3 DUP3 PUSH1 0x5 ADD SLOAD PUSH2 0x63F SWAP2 SWAP1 PUSH2 0x1644 JUMP JUMPDEST DUP3 PUSH1 0x5 ADD DUP2 SWAP1 SSTORE POP JUMPDEST POP POP POP POP JUMP JUMPDEST PUSH1 0x60 PUSH0 PUSH1 0x1 SLOAD PUSH8 0xFFFFFFFFFFFFFFFF DUP2 GT ISZERO PUSH2 0x66D JUMPI PUSH2 0x66C PUSH2 0xA56 JUMP JUMPDEST JUMPDEST PUSH1 0x40 MLOAD SWAP1 DUP1 DUP3 MSTORE DUP1 PUSH1 0x20 MUL PUSH1 0x20 ADD DUP3 ADD PUSH1 0x40 MSTORE DUP1 ISZERO PUSH2 0x6A6 JUMPI DUP2 PUSH1 0x20 ADD JUMPDEST PUSH2 0x693 PUSH2 0x97C JUMP JUMPDEST DUP2 MSTORE PUSH1 0x20 ADD SWAP1 PUSH1 0x1 SWAP1 SUB SWAP1 DUP2 PUSH2 0x68B JUMPI SWAP1 POP JUMPDEST POP SWAP1 POP PUSH0 JUMPDEST PUSH1 0x1 SLOAD DUP2 LT ISZERO PUSH2 0x974 JUMPI PUSH0 DUP1 PUSH0 DUP4 DUP2 MSTORE PUSH1 0x20 ADD SWAP1 DUP2 MSTORE PUSH1 0x20 ADD PUSH0 KECCAK256 SWAP1 POP DUP1 PUSH1 0x40 MLOAD DUP1 PUSH2 0x100 ADD PUSH1 0x40 MSTORE SWAP1 DUP2 PUSH0 DUP3 ADD PUSH0 SWAP1 SLOAD SWAP1 PUSH2 0x100 EXP SWAP1 DIV PUSH20 0xFFFFFFFFFFFFFFFFFFFFFFFFFFFFFFFFFFFFFFFF AND PUSH20 0xFFFFFFFFFFFFFFFFFFFFFFFFFFFFFFFFFFFFFFFF AND PUSH20 0xFFFFFFFFFFFFFFFFFFFFFFFFFFFFFFFFFFFFFFFF AND DUP2 MSTORE PUSH1 0x20 ADD PUSH1 0x1 DUP3 ADD DUP1 SLOAD PUSH2 0x739 SWAP1 PUSH2 0x12C0 JUMP JUMPDEST DUP1 PUSH1 0x1F ADD PUSH1 0x20 DUP1 SWAP2 DIV MUL PUSH1 0x20 ADD PUSH1 0x40 MLOAD SWAP1 DUP2 ADD PUSH1 0x40 MSTORE DUP1 SWAP3 SWAP2 SWAP1 DUP2 DUP2 MSTORE PUSH1 0x20 ADD DUP3 DUP1 SLOAD PUSH2 0x765 SWAP1 PUSH2 0x12C0 JUMP JUMPDEST DUP1 ISZERO PUSH2 0x7B0 JUMPI DUP1 PUSH1 0x1F LT PUSH2 0x787 JUMPI PUSH2 0x100 DUP1 DUP4 SLOAD DIV MUL DUP4 MSTORE SWAP2 PUSH1 0x20 ADD SWAP2 PUSH2 0x7B0 JUMP JUMPDEST DUP3 ADD SWAP2 SWAP1 PUSH0 MSTORE PUSH1 0x20 PUSH0 KECCAK256 SWAP1 JUMPDEST DUP2 SLOAD DUP2 MSTORE SWAP1 PUSH1 0x1 ADD SWAP1 PUSH1 0x20 ADD DUP1 DUP4 GT PUSH2 0x793 JUMPI DUP3 SWAP1 SUB PUSH1 0x1F AND DUP3 ADD SWAP2 JUMPDEST POP POP POP POP POP DUP2 MSTORE PUSH1 0x20 ADD PUSH1 0x2 DUP3 ADD DUP1 SLOAD PUSH2 0x7C9 SWAP1 PUSH2 0x12C0 JUMP JUMPDEST DUP1 PUSH1 0x1F ADD PUSH1 0x20 DUP1 SWAP2 DIV MUL PUSH1 0x20 ADD PUSH1 0x40 MLOAD SWAP1 DUP2 ADD PUSH1 0x40 MSTORE DUP1 SWAP3 SWAP2 SWAP1 DUP2 DUP2 MSTORE PUSH1 0x20 ADD DUP3 DUP1 SLOAD PUSH2 0x7F5 SWAP1 PUSH2 0x12C0 JUMP JUMPDEST DUP1 ISZERO PUSH2 0x840 JUMPI DUP1 PUSH1 0x1F LT PUSH2 0x817 JUMPI PUSH2 0x100 DUP1 DUP4 SLOAD DIV MUL DUP4 MSTORE SWAP2 PUSH1 0x20 ADD SWAP2 PUSH2 0x840 JUMP JUMPDEST DUP3 ADD SWAP2 SWAP1 PUSH0 MSTORE PUSH1 0x20 PUSH0 KECCAK256 SWAP1 JUMPDEST DUP2 SLOAD DUP2 MSTORE SWAP1 PUSH1 0x1 ADD SWAP1 PUSH1 0x20 ADD DUP1 DUP4 GT PUSH2 0x823 JUMPI DUP3 SWAP1 SUB PUSH1 0x1F AND DUP3 ADD SWAP2 JUMPDEST POP POP POP POP POP DUP2 MSTORE PUSH1 0x20 ADD PUSH1 0x3 DUP3 ADD SLOAD DUP2 MSTORE PUSH1 0x20 ADD PUSH1 0x4 DUP3 ADD SLOAD DUP2 MSTORE PUSH1 0x20 ADD PUSH1 0x5 DUP3 ADD SLOAD DUP2 MSTORE PUSH1 0x20 ADD PUSH1 0x6 DUP3 ADD DUP1 SLOAD DUP1 PUSH1 0x20 MUL PUSH1 0x20 ADD PUSH1 0x40 MLOAD SWAP1 DUP2 ADD PUSH1 0x40 MSTORE DUP1 SWAP3 SWAP2 SWAP1 DUP2 DUP2 MSTORE PUSH1 0x20 ADD DUP3 DUP1 SLOAD DUP1 ISZERO PUSH2 0x8E9 JUMPI PUSH1 0x20 MUL DUP3 ADD SWAP2 SWAP1 PUSH0 MSTORE PUSH1 0x20 PUSH0 KECCAK256 SWAP1 JUMPDEST DUP2 PUSH0 SWAP1 SLOAD SWAP1 PUSH2 0x100 EXP SWAP1 DIV PUSH20 0xFFFFFFFFFFFFFFFFFFFFFFFFFFFFFFFFFFFFFFFF AND PUSH20 0xFFFFFFFFFFFFFFFFFFFFFFFFFFFFFFFFFFFFFFFF AND DUP2 MSTORE PUSH1 0x20 ADD SWAP1 PUSH1 0x1 ADD SWAP1 DUP1 DUP4 GT PUSH2 0x8A0 JUMPI JUMPDEST POP POP POP POP POP DUP2 MSTORE PUSH1 0x20 ADD PUSH1 0x7 DUP3 ADD DUP1 SLOAD DUP1 PUSH1 0x20 MUL PUSH1 0x20 ADD PUSH1 0x40 MLOAD SWAP1 DUP2 ADD PUSH1 0x40 MSTORE DUP1 SWAP3 SWAP2 SWAP1 DUP2 DUP2 MSTORE PUSH1 0x20 ADD DUP3 DUP1 SLOAD DUP1 ISZERO PUSH2 0x93F JUMPI PUSH1 0x20 MUL DUP3 ADD SWAP2 SWAP1 PUSH0 MSTORE PUSH1 0x20 PUSH0 KECCAK256 SWAP1 JUMPDEST DUP2 SLOAD DUP2 MSTORE PUSH1 0x20 ADD SWAP1 PUSH1 0x1 ADD SWAP1 DUP1 DUP4 GT PUSH2 0x92B JUMPI JUMPDEST POP POP POP POP POP DUP2 MSTORE POP POP DUP4 DUP4 DUP2 MLOAD DUP2 LT PUSH2 0x95B JUMPI PUSH2 0x95A PUSH2 0x1677 JUMP JUMPDEST JUMPDEST PUSH1 0x20 MUL PUSH1 0x20 ADD ADD DUP2 SWAP1 MSTORE POP POP DUP1 DUP1 PUSH1 0x1 ADD SWAP2 POP POP PUSH2 0x6AB JUMP JUMPDEST POP DUP1 SWAP2 POP POP SWAP1 JUMP JUMPDEST PUSH1 0x40 MLOAD DUP1 PUSH2 0x100 ADD PUSH1 0x40 MSTORE DUP1 PUSH0 PUSH20 0xFFFFFFFFFFFFFFFFFFFFFFFFFFFFFFFFFFFFFFFF AND DUP2 MSTORE PUSH1 0x20 ADD PUSH1 0x60 DUP2 MSTORE PUSH1 0x20 ADD PUSH1 0x60 DUP2 MSTORE PUSH1 0x20 ADD PUSH0 DUP2 MSTORE PUSH1 0x20 ADD PUSH0 DUP2 MSTORE PUSH1 0x20 ADD PUSH0 DUP2 MSTORE PUSH1 0x20 ADD PUSH1 0x60 DUP2 MSTORE PUSH1 0x20 ADD PUSH1 0x60 DUP2 MSTORE POP SWAP1 JUMP JUMPDEST PUSH0 PUSH1 0x40 MLOAD SWAP1 POP SWAP1 JUMP JUMPDEST PUSH0 DUP1 REVERT JUMPDEST PUSH0 DUP1 REVERT JUMPDEST PUSH0 PUSH20 0xFFFFFFFFFFFFFFFFFFFFFFFFFFFFFFFFFFFFFFFF DUP3 AND SWAP1 POP SWAP2 SWAP1 POP JUMP JUMPDEST PUSH0 PUSH2 0xA0D DUP3 PUSH2 0x9E4 JUMP JUMPDEST SWAP1 POP SWAP2 SWAP1 POP JUMP JUMPDEST PUSH2 0xA1D DUP2 PUSH2 0xA03 JUMP JUMPDEST DUP2 EQ PUSH2 0xA27 JUMPI PUSH0 DUP1 REVERT JUMPDEST POP JUMP JUMPDEST PUSH0 DUP2 CALLDATALOAD SWAP1 POP PUSH2 0xA38 DUP2 PUSH2 0xA14 JUMP JUMPDEST SWAP3 SWAP2 POP POP JUMP JUMPDEST PUSH0 DUP1 REVERT JUMPDEST PUSH0 DUP1 REVERT JUMPDEST PUSH0 PUSH1 0x1F NOT PUSH1 0x1F DUP4 ADD AND SWAP1 POP SWAP2 SWAP1 POP JUMP JUMPDEST PUSH32 0x4E487B7100000000000000000000000000000000000000000000000000000000 PUSH0 MSTORE PUSH1 0x41 PUSH1 0x4 MSTORE PUSH1 0x24 PUSH0 REVERT JUMPDEST PUSH2 0xA8C DUP3 PUSH2 0xA46 JUMP JUMPDEST DUP2 ADD DUP2 DUP2 LT PUSH8 0xFFFFFFFFFFFFFFFF DUP3 GT OR ISZERO PUSH2 0xAAB JUMPI PUSH2 0xAAA PUSH2 0xA56 JUMP JUMPDEST JUMPDEST DUP1 PUSH1 0x40 MSTORE POP POP POP JUMP JUMPDEST PUSH0 PUSH2 0xABD PUSH2 0x9D3 JUMP JUMPDEST SWAP1 POP PUSH2 0xAC9 DUP3 DUP3 PUSH2 0xA83 JUMP JUMPDEST SWAP2 SWAP1 POP JUMP JUMPDEST PUSH0 PUSH8 0xFFFFFFFFFFFFFFFF DUP3 GT ISZERO PUSH2 0xAE8 JUMPI PUSH2 0xAE7 PUSH2 0xA56 JUMP JUMPDEST JUMPDEST PUSH2 0xAF1 DUP3 PUSH2 0xA46 JUMP JUMPDEST SWAP1 POP PUSH1 0x20 DUP2 ADD SWAP1 POP SWAP2 SWAP1 POP JUMP JUMPDEST DUP3 DUP2 DUP4 CALLDATACOPY PUSH0 DUP4 DUP4 ADD MSTORE POP POP POP JUMP JUMPDEST PUSH0 PUSH2 0xB1E PUSH2 0xB19 DUP5 PUSH2 0xACE JUMP JUMPDEST PUSH2 0xAB4 JUMP JUMPDEST SWAP1 POP DUP3 DUP2 MSTORE PUSH1 0x20 DUP2 ADD DUP5 DUP5 DUP5 ADD GT ISZERO PUSH2 0xB3A JUMPI PUSH2 0xB39 PUSH2 0xA42 JUMP JUMPDEST JUMPDEST PUSH2 0xB45 DUP5 DUP3 DUP6 PUSH2 0xAFE JUMP JUMPDEST POP SWAP4 SWAP3 POP POP POP JUMP JUMPDEST PUSH0 DUP3 PUSH1 0x1F DUP4 ADD SLT PUSH2 0xB61 JUMPI PUSH2 0xB60 PUSH2 0xA3E JUMP JUMPDEST JUMPDEST DUP2 CALLDATALOAD PUSH2 0xB71 DUP5 DUP3 PUSH1 0x20 DUP7 ADD PUSH2 0xB0C JUMP JUMPDEST SWAP2 POP POP SWAP3 SWAP2 POP POP JUMP JUMPDEST PUSH0 DUP2 SWAP1 POP SWAP2 SWAP1 POP JUMP JUMPDEST PUSH2 0xB8C DUP2 PUSH2 0xB7A JUMP JUMPDEST DUP2 EQ PUSH2 0xB96 JUMPI PUSH0 DUP1 REVERT JUMPDEST POP JUMP JUMPDEST PUSH0 DUP2 CALLDATALOAD SWAP1 POP PUSH2 0xBA7 DUP2 PUSH2 0xB83 JUMP JUMPDEST SWAP3 SWAP2 POP POP JUMP JUMPDEST PUSH0 DUP1 PUSH0 DUP1 PUSH0 PUSH1 0xA0 DUP7 DUP9 SUB SLT ISZERO PUSH2 0xBC6 JUMPI PUSH2 0xBC5 PUSH2 0x9DC JUMP JUMPDEST JUMPDEST PUSH0 PUSH2 0xBD3 DUP9 DUP3 DUP10 ADD PUSH2 0xA2A JUMP JUMPDEST SWAP6 POP POP PUSH1 0x20 DUP7 ADD CALLDATALOAD PUSH8 0xFFFFFFFFFFFFFFFF DUP2 GT ISZERO PUSH2 0xBF4 JUMPI PUSH2 0xBF3 PUSH2 0x9E0 JUMP JUMPDEST JUMPDEST PUSH2 0xC00 DUP9 DUP3 DUP10 ADD PUSH2 0xB4D JUMP JUMPDEST SWAP5 POP POP PUSH1 0x40 DUP7 ADD CALLDATALOAD PUSH8 0xFFFFFFFFFFFFFFFF DUP2 GT ISZERO PUSH2 0xC21 JUMPI PUSH2 0xC20 PUSH2 0x9E0 JUMP JUMPDEST JUMPDEST PUSH2 0xC2D DUP9 DUP3 DUP10 ADD PUSH2 0xB4D JUMP JUMPDEST SWAP4 POP POP PUSH1 0x60 PUSH2 0xC3E DUP9 DUP3 DUP10 ADD PUSH2 0xB99 JUMP JUMPDEST SWAP3 POP POP PUSH1 0x80 PUSH2 0xC4F DUP9 DUP3 DUP10 ADD PUSH2 0xB99 JUMP JUMPDEST SWAP2 POP POP SWAP3 SWAP6 POP SWAP3 SWAP6 SWAP1 SWAP4 POP JUMP JUMPDEST PUSH2 0xC65 DUP2 PUSH2 0xB7A JUMP JUMPDEST DUP3 MSTORE POP POP JUMP JUMPDEST PUSH0 PUSH1 0x20 DUP3 ADD SWAP1 POP PUSH2 0xC7E PUSH0 DUP4 ADD DUP5 PUSH2 0xC5C JUMP JUMPDEST SWAP3 SWAP2 POP POP JUMP JUMPDEST PUSH0 PUSH1 0x20 DUP3 DUP5 SUB SLT ISZERO PUSH2 0xC99 JUMPI PUSH2 0xC98 PUSH2 0x9DC JUMP JUMPDEST JUMPDEST PUSH0 PUSH2 0xCA6 DUP5 DUP3 DUP6 ADD PUSH2 0xB99 JUMP JUMPDEST SWAP2 POP POP SWAP3 SWAP2 POP POP JUMP JUMPDEST PUSH0 DUP2 MLOAD SWAP1 POP SWAP2 SWAP1 POP JUMP JUMPDEST PUSH0 DUP3 DUP3 MSTORE PUSH1 0x20 DUP3 ADD SWAP1 POP SWAP3 SWAP2 POP POP JUMP JUMPDEST PUSH0 DUP2 SWAP1 POP PUSH1 0x20 DUP3 ADD SWAP1 POP SWAP2 SWAP1 POP JUMP JUMPDEST PUSH2 0xCE1 DUP2 PUSH2 0xA03 JUMP JUMPDEST DUP3 MSTORE POP POP JUMP JUMPDEST PUSH0 PUSH2 0xCF2 DUP4 DUP4 PUSH2 0xCD8 JUMP JUMPDEST PUSH1 0x20 DUP4 ADD SWAP1 POP SWAP3 SWAP2 POP POP JUMP JUMPDEST PUSH0 PUSH1 0x20 DUP3 ADD SWAP1 POP SWAP2 SWAP1 POP JUMP JUMPDEST PUSH0 PUSH2 0xD14 DUP3 PUSH2 0xCAF JUMP JUMPDEST PUSH2 0xD1E DUP2 DUP6 PUSH2 0xCB9 JUMP JUMPDEST SWAP4 POP PUSH2 0xD29 DUP4 PUSH2 0xCC9 JUMP JUMPDEST DUP1 PUSH0 JUMPDEST DUP4 DUP2 LT ISZERO PUSH2 0xD59 JUMPI DUP2 MLOAD PUSH2 0xD40 DUP9 DUP3 PUSH2 0xCE7 JUMP JUMPDEST SWAP8 POP PUSH2 0xD4B DUP4 PUSH2 0xCFE JUMP JUMPDEST SWAP3 POP POP PUSH1 0x1 DUP2 ADD SWAP1 POP PUSH2 0xD2C JUMP JUMPDEST POP DUP6 SWAP4 POP POP POP POP SWAP3 SWAP2 POP POP JUMP JUMPDEST PUSH0 DUP2 MLOAD SWAP1 POP SWAP2 SWAP1 POP JUMP JUMPDEST PUSH0 DUP3 DUP3 MSTORE PUSH1 0x20 DUP3 ADD SWAP1 POP SWAP3 SWAP2 POP POP JUMP JUMPDEST PUSH0 DUP2 SWAP1 POP PUSH1 0x20 DUP3 ADD SWAP1 POP SWAP2 SWAP1 POP JUMP JUMPDEST PUSH2 0xD98 DUP2 PUSH2 0xB7A JUMP JUMPDEST DUP3 MSTORE POP POP JUMP JUMPDEST PUSH0 PUSH2 0xDA9 DUP4 DUP4 PUSH2 0xD8F JUMP JUMPDEST PUSH1 0x20 DUP4 ADD SWAP1 POP SWAP3 SWAP2 POP POP JUMP JUMPDEST PUSH0 PUSH1 0x20 DUP3 ADD SWAP1 POP SWAP2 SWAP1 POP JUMP JUMPDEST PUSH0 PUSH2 0xDCB DUP3 PUSH2 0xD66 JUMP JUMPDEST PUSH2 0xDD5 DUP2 DUP6 PUSH2 0xD70 JUMP JUMPDEST SWAP4 POP PUSH2 0xDE0 DUP4 PUSH2 0xD80 JUMP JUMPDEST DUP1 PUSH0 JUMPDEST DUP4 DUP2 LT ISZERO PUSH2 0xE10 JUMPI DUP2 MLOAD PUSH2 0xDF7 DUP9 DUP3 PUSH2 0xD9E JUMP JUMPDEST SWAP8 POP PUSH2 0xE02 DUP4 PUSH2 0xDB5 JUMP JUMPDEST SWAP3 POP POP PUSH1 0x1 DUP2 ADD SWAP1 POP PUSH2 0xDE3 JUMP JUMPDEST POP DUP6 SWAP4 POP POP POP POP SWAP3 SWAP2 POP POP JUMP JUMPDEST PUSH0 PUSH1 0x40 DUP3 ADD SWAP1 POP DUP2 DUP2 SUB PUSH0 DUP4 ADD MSTORE PUSH2 0xE35 DUP2 DUP6 PUSH2 0xD0A JUMP JUMPDEST SWAP1 POP DUP2 DUP2 SUB PUSH1 0x20 DUP4 ADD MSTORE PUSH2 0xE49 DUP2 DUP5 PUSH2 0xDC1 JUMP JUMPDEST SWAP1 POP SWAP4 SWAP3 POP POP POP JUMP JUMPDEST PUSH2 0xE5B DUP2 PUSH2 0xA03 JUMP JUMPDEST DUP3 MSTORE POP POP JUMP JUMPDEST PUSH0 DUP2 MLOAD SWAP1 POP SWAP2 SWAP1 POP JUMP JUMPDEST PUSH0 DUP3 DUP3 MSTORE PUSH1 0x20 DUP3 ADD SWAP1 POP SWAP3 SWAP2 POP POP JUMP JUMPDEST PUSH0 JUMPDEST DUP4 DUP2 LT ISZERO PUSH2 0xE98 JUMPI DUP1 DUP3 ADD MLOAD DUP2 DUP5 ADD MSTORE PUSH1 0x20 DUP2 ADD SWAP1 POP PUSH2 0xE7D JUMP JUMPDEST PUSH0 DUP5 DUP5 ADD MSTORE POP POP POP POP JUMP JUMPDEST PUSH0 PUSH2 0xEAD DUP3 PUSH2 0xE61 JUMP JUMPDEST PUSH2 0xEB7 DUP2 DUP6 PUSH2 0xE6B JUMP JUMPDEST SWAP4 POP PUSH2 0xEC7 DUP2 DUP6 PUSH1 0x20 DUP7 ADD PUSH2 0xE7B JUMP JUMPDEST PUSH2 0xED0 DUP2 PUSH2 0xA46 JUMP JUMPDEST DUP5 ADD SWAP2 POP POP SWAP3 SWAP2 POP POP JUMP JUMPDEST PUSH0 PUSH1 0xC0 DUP3 ADD SWAP1 POP PUSH2 0xEEE PUSH0 DUP4 ADD DUP10 PUSH2 0xE52 JUMP JUMPDEST DUP2 DUP2 SUB PUSH1 0x20 DUP4 ADD MSTORE PUSH2 0xF00 DUP2 DUP9 PUSH2 0xEA3 JUMP JUMPDEST SWAP1 POP DUP2 DUP2 SUB PUSH1 0x40 DUP4 ADD MSTORE PUSH2 0xF14 DUP2 DUP8 PUSH2 0xEA3 JUMP JUMPDEST SWAP1 POP PUSH2 0xF23 PUSH1 0x60 DUP4 ADD DUP7 PUSH2 0xC5C JUMP JUMPDEST PUSH2 0xF30 PUSH1 0x80 DUP4 ADD DUP6 PUSH2 0xC5C JUMP JUMPDEST PUSH2 0xF3D PUSH1 0xA0 DUP4 ADD DUP5 PUSH2 0xC5C JUMP JUMPDEST SWAP8 SWAP7 POP POP POP POP POP POP POP JUMP JUMPDEST PUSH0 DUP2 MLOAD SWAP1 POP SWAP2 SWAP1 POP JUMP JUMPDEST PUSH0 DUP3 DUP3 MSTORE PUSH1 0x20 DUP3 ADD SWAP1 POP SWAP3 SWAP2 POP POP JUMP JUMPDEST PUSH0 DUP2 SWAP1 POP PUSH1 0x20 DUP3 ADD SWAP1 POP SWAP2 SWAP1 POP JUMP JUMPDEST PUSH0 DUP3 DUP3 MSTORE PUSH1 0x20 DUP3 ADD SWAP1 POP SWAP3 SWAP2 POP POP JUMP JUMPDEST PUSH0 PUSH2 0xF8B DUP3 PUSH2 0xE61 JUMP JUMPDEST PUSH2 0xF95 DUP2 DUP6 PUSH2 0xF71 JUMP JUMPDEST SWAP4 POP PUSH2 0xFA5 DUP2 DUP6 PUSH1 0x20 DUP7 ADD PUSH2 0xE7B JUMP JUMPDEST PUSH2 0xFAE DUP2 PUSH2 0xA46 JUMP JUMPDEST DUP5 ADD SWAP2 POP POP SWAP3 SWAP2 POP POP JUMP JUMPDEST PUSH0 DUP3 DUP3 MSTORE PUSH1 0x20 DUP3 ADD SWAP1 POP SWAP3 SWAP2 POP POP JUMP JUMPDEST PUSH0 PUSH2 0xFD3 DUP3 PUSH2 0xCAF JUMP JUMPDEST PUSH2 0xFDD DUP2 DUP6 PUSH2 0xFB9 JUMP JUMPDEST SWAP4 POP PUSH2 0xFE8 DUP4 PUSH2 0xCC9 JUMP JUMPDEST DUP1 PUSH0 JUMPDEST DUP4 DUP2 LT ISZERO PUSH2 0x1018 JUMPI DUP2 MLOAD PUSH2 0xFFF DUP9 DUP3 PUSH2 0xCE7 JUMP JUMPDEST SWAP8 POP PUSH2 0x100A DUP4 PUSH2 0xCFE JUMP JUMPDEST SWAP3 POP POP PUSH1 0x1 DUP2 ADD SWAP1 POP PUSH2 0xFEB JUMP JUMPDEST POP DUP6 SWAP4 POP POP POP POP SWAP3 SWAP2 POP POP JUMP JUMPDEST PUSH0 DUP3 DUP3 MSTORE PUSH1 0x20 DUP3 ADD SWAP1 POP SWAP3 SWAP2 POP POP JUMP JUMPDEST PUSH0 PUSH2 0x103F DUP3 PUSH2 0xD66 JUMP JUMPDEST PUSH2 0x1049 DUP2 DUP6 PUSH2 0x1025 JUMP JUMPDEST SWAP4 POP PUSH2 0x1054 DUP4 PUSH2 0xD80 JUMP JUMPDEST DUP1 PUSH0 JUMPDEST DUP4 DUP2 LT ISZERO PUSH2 0x1084 JUMPI DUP2 MLOAD PUSH2 0x106B DUP9 DUP3 PUSH2 0xD9E JUMP JUMPDEST SWAP8 POP PUSH2 0x1076 DUP4 PUSH2 0xDB5 JUMP JUMPDEST SWAP3 POP POP PUSH1 0x1 DUP2 ADD SWAP1 POP PUSH2 0x1057 JUMP JUMPDEST POP DUP6 SWAP4 POP POP POP POP SWAP3 SWAP2 POP POP JUMP JUMPDEST PUSH0 PUSH2 0x100 DUP4 ADD PUSH0 DUP4 ADD MLOAD PUSH2 0x10A7 PUSH0 DUP7 ADD DUP3 PUSH2 0xCD8 JUMP JUMPDEST POP PUSH1 0x20 DUP4 ADD MLOAD DUP5 DUP3 SUB PUSH1 0x20 DUP7 ADD MSTORE PUSH2 0x10BF DUP3 DUP3 PUSH2 0xF81 JUMP JUMPDEST SWAP2 POP POP PUSH1 0x40 DUP4 ADD MLOAD DUP5 DUP3 SUB PUSH1 0x40 DUP7 ADD MSTORE PUSH2 0x10D9 DUP3 DUP3 PUSH2 0xF81 JUMP JUMPDEST SWAP2 POP POP PUSH1 0x60 DUP4 ADD MLOAD PUSH2 0x10EE PUSH1 0x60 DUP7 ADD DUP3 PUSH2 0xD8F JUMP JUMPDEST POP PUSH1 0x80 DUP4 ADD MLOAD PUSH2 0x1101 PUSH1 0x80 DUP7 ADD DUP3 PUSH2 0xD8F JUMP JUMPDEST POP PUSH1 0xA0 DUP4 ADD MLOAD PUSH2 0x1114 PUSH1 0xA0 DUP7 ADD DUP3 PUSH2 0xD8F JUMP JUMPDEST POP PUSH1 0xC0 DUP4 ADD MLOAD DUP5 DUP3 SUB PUSH1 0xC0 DUP7 ADD MSTORE PUSH2 0x112C DUP3 DUP3 PUSH2 0xFC9 JUMP JUMPDEST SWAP2 POP POP PUSH1 0xE0 DUP4 ADD MLOAD DUP5 DUP3 SUB PUSH1 0xE0 DUP7 ADD MSTORE PUSH2 0x1146 DUP3 DUP3 PUSH2 0x1035 JUMP JUMPDEST SWAP2 POP POP DUP1 SWAP2 POP POP SWAP3 SWAP2 POP POP JUMP JUMPDEST PUSH0 PUSH2 0x115E DUP4 DUP4 PUSH2 0x1091 JUMP JUMPDEST SWAP1 POP SWAP3 SWAP2 POP POP JUMP JUMPDEST PUSH0 PUSH1 0x20 DUP3 ADD SWAP1 POP SWAP2 SWAP1 POP JUMP JUMPDEST PUSH0 PUSH2 0x117C DUP3 PUSH2 0xF48 JUMP JUMPDEST PUSH2 0x1186 DUP2 DUP6 PUSH2 0xF52 JUMP JUMPDEST SWAP4 POP DUP4 PUSH1 0x20 DUP3 MUL DUP6 ADD PUSH2 0x1198 DUP6 PUSH2 0xF62 JUMP JUMPDEST DUP1 PUSH0 JUMPDEST DUP6 DUP2 LT ISZERO PUSH2 0x11D3 JUMPI DUP5 DUP5 SUB DUP10 MSTORE DUP2 MLOAD PUSH2 0x11B4 DUP6 DUP3 PUSH2 0x1153 JUMP JUMPDEST SWAP5 POP PUSH2 0x11BF DUP4 PUSH2 0x1166 JUMP JUMPDEST SWAP3 POP PUSH1 0x20 DUP11 ADD SWAP10 POP POP PUSH1 0x1 DUP2 ADD SWAP1 POP PUSH2 0x119B JUMP JUMPDEST POP DUP3 SWAP8 POP DUP8 SWAP6 POP POP POP POP POP POP SWAP3 SWAP2 POP POP JUMP JUMPDEST PUSH0 PUSH1 0x20 DUP3 ADD SWAP1 POP DUP2 DUP2 SUB PUSH0 DUP4 ADD MSTORE PUSH2 0x11FD DUP2 DUP5 PUSH2 0x1172 JUMP JUMPDEST SWAP1 POP SWAP3 SWAP2 POP POP JUMP JUMPDEST PUSH32 0x54686520646561646C696E652073686F756C642062652061206461746520696E PUSH0 DUP3 ADD MSTORE PUSH32 0x20746865206675747572652E0000000000000000000000000000000000000000 PUSH1 0x20 DUP3 ADD MSTORE POP JUMP JUMPDEST PUSH0 PUSH2 0x125F PUSH1 0x2C DUP4 PUSH2 0xE6B JUMP JUMPDEST SWAP2 POP PUSH2 0x126A DUP3 PUSH2 0x1205 JUMP JUMPDEST PUSH1 0x40 DUP3 ADD SWAP1 POP SWAP2 SWAP1 POP JUMP JUMPDEST PUSH0 PUSH1 0x20 DUP3 ADD SWAP1 POP DUP2 DUP2 SUB PUSH0 DUP4 ADD MSTORE PUSH2 0x128C DUP2 PUSH2 0x1253 JUMP JUMPDEST SWAP1 POP SWAP2 SWAP1 POP JUMP JUMPDEST PUSH32 0x4E487B7100000000000000000000000000000000000000000000000000000000 PUSH0 MSTORE PUSH1 0x22 PUSH1 0x4 MSTORE PUSH1 0x24 PUSH0 REVERT JUMPDEST PUSH0 PUSH1 0x2 DUP3 DIV SWAP1 POP PUSH1 0x1 DUP3 AND DUP1 PUSH2 0x12D7 JUMPI PUSH1 0x7F DUP3 AND SWAP2 POP JUMPDEST PUSH1 0x20 DUP3 LT DUP2 SUB PUSH2 0x12EA JUMPI PUSH2 0x12E9 PUSH2 0x1293 JUMP JUMPDEST JUMPDEST POP SWAP2 SWAP1 POP JUMP JUMPDEST PUSH0 DUP2 SWAP1 POP DUP2 PUSH0 MSTORE PUSH1 0x20 PUSH0 KECCAK256 SWAP1 POP SWAP2 SWAP1 POP JUMP JUMPDEST PUSH0 PUSH1 0x20 PUSH1 0x1F DUP4 ADD DIV SWAP1 POP SWAP2 SWAP1 POP JUMP JUMPDEST PUSH0 DUP3 DUP3 SHL SWAP1 POP SWAP3 SWAP2 POP POP JUMP JUMPDEST PUSH0 PUSH1 0x8 DUP4 MUL PUSH2 0x134C PUSH32 0xFFFFFFFFFFFFFFFFFFFFFFFFFFFFFFFFFFFFFFFFFFFFFFFFFFFFFFFFFFFFFFFF DUP3 PUSH2 0x1311 JUMP JUMPDEST PUSH2 0x1356 DUP7 DUP4 PUSH2 0x1311 JUMP JUMPDEST SWAP6 POP DUP1 NOT DUP5 AND SWAP4 POP DUP1 DUP7 AND DUP5 OR SWAP3 POP POP POP SWAP4 SWAP3 POP POP POP JUMP JUMPDEST PUSH0 DUP2 SWAP1 POP SWAP2 SWAP1 POP JUMP JUMPDEST PUSH0 PUSH2 0x1391 PUSH2 0x138C PUSH2 0x1387 DUP5 PUSH2 0xB7A JUMP JUMPDEST PUSH2 0x136E JUMP JUMPDEST PUSH2 0xB7A JUMP JUMPDEST SWAP1 POP SWAP2 SWAP1 POP JUMP JUMPDEST PUSH0 DUP2 SWAP1 POP SWAP2 SWAP1 POP JUMP JUMPDEST PUSH2 0x13AA DUP4 PUSH2 0x1377 JUMP JUMPDEST PUSH2 0x13BE PUSH2 0x13B6 DUP3 PUSH2 0x1398 JUMP JUMPDEST DUP5 DUP5 SLOAD PUSH2 0x131D JUMP JUMPDEST DUP3 SSTORE POP POP POP POP JUMP JUMPDEST PUSH0 SWAP1 JUMP JUMPDEST PUSH2 0x13D2 PUSH2 0x13C6 JUMP JUMPDEST PUSH2 0x13DD DUP2 DUP5 DUP5 PUSH2 0x13A1 JUMP JUMPDEST POP POP POP JUMP JUMPDEST JUMPDEST DUP2 DUP2 LT ISZERO PUSH2 0x1400 JUMPI PUSH2 0x13F5 PUSH0 DUP3 PUSH2 0x13CA JUMP JUMPDEST PUSH1 0x1 DUP2 ADD SWAP1 POP PUSH2 0x13E3 JUMP JUMPDEST POP POP JUMP JUMPDEST PUSH1 0x1F DUP3 GT ISZERO PUSH2 0x1445 JUMPI PUSH2 0x1416 DUP2 PUSH2 0x12F0 JUMP JUMPDEST PUSH2 0x141F DUP5 PUSH2 0x1302 JUMP JUMPDEST DUP2 ADD PUSH1 0x20 DUP6 LT ISZERO PUSH2 0x142E JUMPI DUP2 SWAP1 POP JUMPDEST PUSH2 0x1442 PUSH2 0x143A DUP6 PUSH2 0x1302 JUMP JUMPDEST DUP4 ADD DUP3 PUSH2 0x13E2 JUMP JUMPDEST POP POP JUMPDEST POP POP POP JUMP JUMPDEST PUSH0 DUP3 DUP3 SHR SWAP1 POP SWAP3 SWAP2 POP POP JUMP JUMPDEST PUSH0 PUSH2 0x1465 PUSH0 NOT DUP5 PUSH1 0x8 MUL PUSH2 0x144A JUMP JUMPDEST NOT DUP1 DUP4 AND SWAP2 POP POP SWAP3 SWAP2 POP POP JUMP JUMPDEST PUSH0 PUSH2 0x147D DUP4 DUP4 PUSH2 0x1456 JUMP JUMPDEST SWAP2 POP DUP3 PUSH1 0x2 MUL DUP3 OR SWAP1 POP SWAP3 SWAP2 POP POP JUMP JUMPDEST PUSH2 0x1496 DUP3 PUSH2 0xE61 JUMP JUMPDEST PUSH8 0xFFFFFFFFFFFFFFFF DUP2 GT ISZERO PUSH2 0x14AF JUMPI PUSH2 0x14AE PUSH2 0xA56 JUMP JUMPDEST JUMPDEST PUSH2 0x14B9 DUP3 SLOAD PUSH2 0x12C0 JUMP JUMPDEST PUSH2 0x14C4 DUP3 DUP3 DUP6 PUSH2 0x1404 JUMP JUMPDEST PUSH0 PUSH1 0x20 SWAP1 POP PUSH1 0x1F DUP4 GT PUSH1 0x1 DUP2 EQ PUSH2 0x14F5 JUMPI PUSH0 DUP5 ISZERO PUSH2 0x14E3 JUMPI DUP3 DUP8 ADD MLOAD SWAP1 POP JUMPDEST PUSH2 0x14ED DUP6 DUP3 PUSH2 0x1472 JUMP JUMPDEST DUP7 SSTORE POP PUSH2 0x1554 JUMP JUMPDEST PUSH1 0x1F NOT DUP5 AND PUSH2 0x1503 DUP7 PUSH2 0x12F0 JUMP JUMPDEST PUSH0 JUMPDEST DUP3 DUP2 LT ISZERO PUSH2 0x152A JUMPI DUP5 DUP10 ADD MLOAD DUP3 SSTORE PUSH1 0x1 DUP3 ADD SWAP2 POP PUSH1 0x20 DUP6 ADD SWAP5 POP PUSH1 0x20 DUP2 ADD SWAP1 POP PUSH2 0x1505 JUMP JUMPDEST DUP7 DUP4 LT ISZERO PUSH2 0x1547 JUMPI DUP5 DUP10 ADD MLOAD PUSH2 0x1543 PUSH1 0x1F DUP10 AND DUP3 PUSH2 0x1456 JUMP JUMPDEST DUP4 SSTORE POP JUMPDEST PUSH1 0x1 PUSH1 0x2 DUP9 MUL ADD DUP9 SSTORE POP POP POP JUMPDEST POP POP POP POP POP POP JUMP JUMPDEST PUSH32 0x4E487B7100000000000000000000000000000000000000000000000000000000 PUSH0 MSTORE PUSH1 0x11 PUSH1 0x4 MSTORE PUSH1 0x24 PUSH0 REVERT JUMPDEST PUSH0 PUSH2 0x1593 DUP3 PUSH2 0xB7A JUMP JUMPDEST SWAP2 POP PUSH32 0xFFFFFFFFFFFFFFFFFFFFFFFFFFFFFFFFFFFFFFFFFFFFFFFFFFFFFFFFFFFFFFFF DUP3 SUB PUSH2 0x15C5 JUMPI PUSH2 0x15C4 PUSH2 0x155C JUMP JUMPDEST JUMPDEST PUSH1 0x1 DUP3 ADD SWAP1 POP SWAP2 SWAP1 POP JUMP JUMPDEST PUSH0 PUSH2 0x15DA DUP3 PUSH2 0xB7A JUMP JUMPDEST SWAP2 POP PUSH2 0x15E5 DUP4 PUSH2 0xB7A JUMP JUMPDEST SWAP3 POP DUP3 DUP3 SUB SWAP1 POP DUP2 DUP2 GT ISZERO PUSH2 0x15FD JUMPI PUSH2 0x15FC PUSH2 0x155C JUMP JUMPDEST JUMPDEST SWAP3 SWAP2 POP POP JUMP JUMPDEST PUSH0 DUP2 SWAP1 POP SWAP3 SWAP2 POP POP JUMP JUMPDEST POP JUMP JUMPDEST PUSH0 PUSH2 0x161B PUSH0 DUP4 PUSH2 0x1603 JUMP JUMPDEST SWAP2 POP PUSH2 0x1626 DUP3 PUSH2 0x160D JUMP JUMPDEST PUSH0 DUP3 ADD SWAP1 POP SWAP2 SWAP1 POP JUMP JUMPDEST PUSH0 PUSH2 0x163A DUP3 PUSH2 0x1610 JUMP JUMPDEST SWAP2 POP DUP2 SWAP1 POP SWAP2 SWAP1 POP JUMP JUMPDEST PUSH0 PUSH2 0x164E DUP3 PUSH2 0xB7A JUMP JUMPDEST SWAP2 POP PUSH2 0x1659 DUP4 PUSH2 0xB7A JUMP JUMPDEST SWAP3 POP DUP3 DUP3 ADD SWAP1 POP DUP1 DUP3 GT ISZERO PUSH2 0x1671 JUMPI PUSH2 0x1670 PUSH2 0x155C JUMP JUMPDEST JUMPDEST SWAP3 SWAP2 POP POP JUMP JUMPDEST PUSH32 0x4E487B7100000000000000000000000000000000000000000000000000000000 PUSH0 MSTORE PUSH1 0x32 PUSH1 0x4 MSTORE PUSH1 0x24 PUSH0 REVERT INVALID LOG2 PUSH5 0x6970667358 0x22 SLT KECCAK256 ISZERO 0xEB 0xBB 0xCB 0xC7 ISZERO AND GASLIMIT SWAP4 0xDB PUSH25 0x7ADA165582D24BA1A4041DD4A0E31FAC61A74C161264736F6C PUSH4 0x43000818 STOP CALLER "
		},
		"gasEstimates": {
			"creation": {
				"codeDepositCost": "1170000",
				"executionCost": "6217",
				"totalCost": "1176217"
			},
			"external": {
				"campaigns(uint256)": "infinite",
				"createCampaign(address,string,string,uint256,uint256)": "infinite",
				"donateToCampaign(uint256)": "infinite",
				"getCampaigns()": "infinite",
				"getDonators(uint256)": "infinite",
				"numberOfCampaigns()": "2425"
			}
		},
		"methodIdentifiers": {
			"campaigns(uint256)": "141961bc",
			"createCampaign(address,string,string,uint256,uint256)": "075843c3",
			"donateToCampaign(uint256)": "42a4fda8",
			"getCampaigns()": "a6b03633",
			"getDonators(uint256)": "0fa91fa9",
			"numberOfCampaigns()": "07ca140d"
		}
	},
	"abi": [
		{
			"inputs": [
				{
					"internalType": "uint256",
					"name": "",
					"type": "uint256"
				}
			],
			"name": "campaigns",
			"outputs": [
				{
					"internalType": "address",
					"name": "owner",
					"type": "address"
				},
				{
					"internalType": "string",
					"name": "title",
					"type": "string"
				},
				{
					"internalType": "string",
					"name": "description",
					"type": "string"
				},
				{
					"internalType": "uint256",
					"name": "target",
					"type": "uint256"
				},
				{
					"internalType": "uint256",
					"name": "deadline",
					"type": "uint256"
				},
				{
					"internalType": "uint256",
					"name": "amountCollected",
					"type": "uint256"
				}
			],
			"stateMutability": "view",
			"type": "function"
		},
		{
			"inputs": [
				{
					"internalType": "address",
					"name": "_owner",
					"type": "address"
				},
				{
					"internalType": "string",
					"name": "_title",
					"type": "string"
				},
				{
					"internalType": "string",
					"name": "_description",
					"type": "string"
				},
				{
					"internalType": "uint256",
					"name": "_target",
					"type": "uint256"
				},
				{
					"internalType": "uint256",
					"name": "_deadline",
					"type": "uint256"
				}
			],
			"name": "createCampaign",
			"outputs": [
				{
					"internalType": "uint256",
					"name": "",
					"type": "uint256"
				}
			],
			"stateMutability": "nonpayable",
			"type": "function"
		},
		{
			"inputs": [
				{
					"internalType": "uint256",
					"name": "_id",
					"type": "uint256"
				}
			],
			"name": "donateToCampaign",
			"outputs": [],
			"stateMutability": "payable",
			"type": "function"
		},
		{
			"inputs": [],
			"name": "getCampaigns",
			"outputs": [
				{
					"components": [
						{
							"internalType": "address",
							"name": "owner",
							"type": "address"
						},
						{
							"internalType": "string",
							"name": "title",
							"type": "string"
						},
						{
							"internalType": "string",
							"name": "description",
							"type": "string"
						},
						{
							"internalType": "uint256",
							"name": "target",
							"type": "uint256"
						},
						{
							"internalType": "uint256",
							"name": "deadline",
							"type": "uint256"
						},
						{
							"internalType": "uint256",
							"name": "amountCollected",
							"type": "uint256"
						},
						{
							"internalType": "address[]",
							"name": "donators",
							"type": "address[]"
						},
						{
							"internalType": "uint256[]",
							"name": "donations",
							"type": "uint256[]"
						}
					],
					"internalType": "struct CrowdFunding.Campaign[]",
					"name": "",
					"type": "tuple[]"
				}
			],
			"stateMutability": "view",
			"type": "function"
		},
		{
			"inputs": [
				{
					"internalType": "uint256",
					"name": "_id",
					"type": "uint256"
				}
			],
			"name": "getDonators",
			"outputs": [
				{
					"internalType": "address[]",
					"name": "",
					"type": "address[]"
				},
				{
					"internalType": "uint256[]",
					"name": "",
					"type": "uint256[]"
				}
			],
			"stateMutability": "view",
			"type": "function"
		},
		{
			"inputs": [],
			"name": "numberOfCampaigns",
			"outputs": [
				{
					"internalType": "uint256",
					"name": "",
					"type": "uint256"
				}
			],
			"stateMutability": "view",
			"type": "function"
		}
	]
}